:020000040800F2
:10000000D85A002089020008B11B000853190008C3
:10001000AD1B000835160008812200080000000012
:10002000000000000000000000000000F1010008D6
:10003000C11700080000000035020008AD1E0008CE
:10004000A3020008A3020008A3020008A3020008FC
:10005000A3020008A3020008A3020008A3020008EC
:10006000A3020008A3020008A3020008A3020008DC
:10007000A3020008A3020008A3020008A3020008CC
:10008000A3020008A3020008A3020008A3020008BC
:10009000A3020008A3020008A3020008A3020008AC
:1000A000A3020008A3020008A3020008A30200089C
:1000B000A30200081D1F0008A3020008A3020008F5
:1000C000A3020008A3020008A3020008A30200087C
:1000D000A3020008611F0008A3020008D11F000846
:1000E000A3020008A3020008A3020008A30200085C
:1000F000A3020008A3020008A3020008A30200084C
:10010000A3020008A3020008A3020008A30200083B
:10011000A3020008A3020008A3020008A30200082B
:10012000A3020008A3020008A3020008A30200081B
:1001300000F002F800F04DF80AA090E8000C8244AC
:100140008344AAF10107DA4501D100F042F8AFF289
:10015000090EBAE80F0013F0010F18BFFB1A43F0A5
:1001600001031847744E0000944E0000103A24BF5B
:1001700078C878C1FAD8520724BF30C830C144BF0C
:1001800004680C607047000000230024002500264E
:10019000103A28BF78C1FBD8520728BF30C148BFEA
:1001A0000B607047662904F0CA86642900F0C48099
:1001B000732900F06584002070471FB500F0CAFC69
:1001C00004000020002104F07BFCE0601FBD10B59E
:1001D00010BD00F0E7FD1146FFF7EFFF02F040F918
:1001E00000F005FE03B4FFF7F2FF03BC02F065F870
:1001F000224B19680868B0E8F00F80F30988BFF354
:100200006F8F4FF0000080F311884EF00D0E704795
:100210000000000006480068006880F3088862B6A5
:1002200061B6BFF34F8FBFF36F8F00DF00BF00BF1A
:1002300008ED00E0EFF30980BFF36F8F0F4B1A68F2
:1002400020E9F00F106008B54FF0500080F31188DE
:10025000BFF34F8FBFF36F8F03F06CFD4FF00000C3
:1002600080F31188BDE8084019680868B0E8F00F0D
:1002700080F30988BFF36F8F704700BF50000020E4
:10028000EFF30580704700000948804709480047A0
:10029000FEE7FEE7FEE7FEE7FEE7FEE7FEE7FEE736
:1002A000FEE7FEE704480549054A064B7047000093
:1002B000BD1E000831010008D8540020D85A002083
:1002C000D8560020D8560020704700000FB40449CB
:1002D00010B503AA029800F0D7FB10BC5DF814FB20
:1002E0003400002070B50C460546012A05D0287858
:1002F000800600D5EA69002302E0012305E05B1CCB
:10030000934202D2E05C0028F9D1A869E618C01A2D
:10031000A861286A184428622846AFF3008004E0E8
:10032000D5E9012114F8010B9047B442F8D32846CF
:10033000AFF3008070BD00002DE9F04106460024B7
:1003400010687529314616A510D0AFF3008000283B
:1003500002DA404213A507E031688A0701D512A5E9
:1003600002E0490704D511A5012401E0AFF30080A4
:1003700000210A2206F1240709E0B0FBF2FCB0FBE1
:10038000F2F302FB1C00303078541846491C002858
:10039000F3D123462A463046BDE8F04100F0E0B8EC
:1003A000000000002D0000002B00000020000000D5
:1003B0002DE9F0474FF0000A89460446C0F820A016
:1003C0002046E1688847002876D0252806D0D4E961
:1003D00001219047206A401C2062F1E7E168204635
:1003E00000258847C4F81CA006460027C4F818A0BA
:1003F0002A2E09D0304601F059FF38B304EB8708A4
:10040000303EC8F8186019E059F8041B204604EB88
:1004100087029161E1688847012F064618D1E0699B
:10042000002820DA25F020051DE0D8F8180000EBA0
:10043000800006EB40003038C8F818002046E1681C
:100440008847064601F032FF0028EED1012F0AD07E
:100450002E2E08D12046E16888477F1C0646022FD1
:1004600045F02005C4DBA069002803DA404245F0CE
:100470000105A061E80701D025F01005B6B1A6F18D
:100480004100192802D8203645F400654A46314615
:10049000204625604D46FFF785FE58B1012806D05D
:1004A000ED1D25F0070000F1080989E704E005F1DA
:1004B000040985E730468AE7206ABDE8F087032A09
:1004C00040F2308010F0030C00F0158011F8013B71
:1004D000BCF1020F624498BF11F801CB00F8013B58
:1004E00038BF11F8013BA2F1040298BF00F801CB1C
:1004F00038BF00F8013B11F0030300F0D782083A3F
:10050000C0F0088051F8043B083A51F804CBA0E849
:100510000810F5E7121D5CBF51F8043B40F8043B9E
:10052000AFF30080D20724BF11F8013B11F801CBD3
:1005300048BF11F8012B24BF00F8013B00F801CBA4
:1005400048BF00F8012B704702F0FF0343EA032283
:1005500042EA024200F0DEBA7047704770477047C7
:100560002DE9F0470D4699469246044600F12408CD
:100570000168880604D5E06921F01001216000E0DF
:100580000120A84201DD471B00E00027A1697A197C
:1005900002EB0900081AA0612078C00602D42046A8
:1005A000AFF30080002608E0D4E901211AF8060024
:1005B0009047206A401C761C20624E45F4DB207870
:1005C000C0060AD52046AFF3008006E0D4E9012139
:1005D00030209047206A401C2062381EA7F1010796
:1005E000F4DC07E0D4E9012118F805009047206AFF
:1005F000401C2062281EA5F10105F3DC2046AFF364
:1006000000802078000602D50220BDE8F087012096
:10061000FBE770472DE9FF4F0C461E464FF0FF37B2
:100620008BB0D2E90001DDF860800A908A46C1F300
:100630000A5505B93D46002108464FF00000BAF1C1
:10064000000F00F4400005DA00EB80004FF4400199
:1006500001EA50004FEA9059B9F1010F00DDB946A7
:100660000A9850EA4A000ED044F61050A5F2FF3521
:1006700045432F14B8F1000F1ED07542291E1EDD10
:10068000C9F100021CE0B8F1010F4FF0000001D0E9
:10069000302103E0F24305E02154401CB042FBDB73
:1006A00030460022002121540B99C1F80880C1E98D
:1006B00000200FB0BDE8F08FBD1B6D1CDEE74A4681
:1006C00000DA694206A800F0CFFA06AB93E807000B
:1006D00003AB83E8070050460A9900F0CFFB8DE892
:1006E0000700A0F500501F3800900398002D09DD89
:1006F00042F21F014A46084403A90390684600F0ED
:100700002EFE08E0A0F500504A461F3803A90390CA
:10071000684600F038FE8DE807000004000C03D0A6
:100720004FF0FF30410800E01046B8F1000F03D051
:100730000022009215461EE0751E05D400F00EFA48
:10074000303262556D1EF9D5B3460122084302D0FE
:1007500000227F1C04E02078302801D100227F1E77
:10076000002A099786D01DE0112D07DA00F0F6F96E
:10077000303262556D1C50EA0102F5D1084302D0B7
:100780000098C8B10EE00021681E05E0235C625CA1
:1007900063542254401E491C8142F7DBAB46A81B20
:1007A000401E0990002004F80B000B98099AC0F82D
:1007B0000880C0E9002B7CE711264FF0000859E7BC
:1007C0002DE9F04F88460446D21D22F0070191B072
:1007D000D1E90001CDE90A0101F054FD02460B9870
:1007E000C00F01D02D2007E02068810701D52B2004
:1007F00002E0202101EAC000032A099001D0072A63
:1008000005DB03464146204600F0EEF90BE1207877
:10081000800601D5E06900E00620B8F1650F814649
:1008200006D0B8F1660F18D0B8F1670F70D131E07B
:100830000020B9F1110F009001DB112301E009F153
:1008400001030AAA01A90CA8FFF7E4FEDDE90C7078
:10085000002609F10105834647E001204B46009040
:100860004FF000470AAA01A90CA8FFF7D3FEDDE963
:100870000DB00C995D46002610B909F101000D1864
:10088000B9EB050003D4C0F1FF3609F10105A5EB72
:1008900009002BE0B9F1010F01DA4FF00109002046
:1008A000B9F1110F0090484601DD112300E0034625
:1008B0000AAA01A90CA8FFF7ADFEDDE90C704D46B0
:1008C00000268346207800070AD4AB4500DA5D464F
:1008D00001A8012D04DD411911F8011C302907D0B0
:1008E0004F4502DA17F1040F04DA012082460FE0C7
:1008F0006D1EEEE7002F02DCED1B3E4403E0781C8A
:10090000A84200DD7D1CB81B00F1010A4FF0004732
:100910002078000703D4AA4501DB4FF0FF3A0021FD
:10092000B7F1004F0DF143088DF8431024D0022099
:100930002B23002F01DA7F422D230A21021EA0F172
:10094000010000DC5FB197FBF1FC97FBF1F201FBCA
:100950001C7C17460CF1300C08F801CDEEE7A8F12D
:10096000010003702188090501D5452100E06521BA
:10097000A0F1010800F8011C09980FA9A1EB0807D4
:10098000FF1D00B10120411901EBEA70A169384453
:10099000081A401EA0612078C00602D42046AFF39A
:1009A0000080099828B1D4E901219047206A401CB1
:1009B00020622078C00622D52046AFF300801EE0DA
:1009C000002E04DBB34502DD01A8805D00E030208D
:1009D000D4E901219047206A401C2062761CAAF1CC
:1009E00001005FEA000A0AD100F0B4F8C0680168AB
:1009F000405CD4E901219047206A401C2062281EF7
:100A0000A5F10105DCDC07E0D4E9012118F8010BB0
:100A10009047206A401C2062381EA7F10107F3DCD2
:100A20002046AFF30080032011B043E601694A1C61
:100A300002610878704700B58FB0CDE9013100211F
:100A4000059105497944CDE9031011466846FFF741
:100A5000AFFC0FB000BD0000E5FFFFFF10B543691C
:100A600013B1AFF3008001E0FFF73CFC012010BDA3
:100A7000127800F124010A7000224A700122EDE789
:100A800011684FF0FF32E9E7074B70B50D467B4424
:100A9000FFF7D1FF0446284600F054F910B14FF09B
:100AA000FF3070BD204670BD2B19000010B5203AF4
:100AB000C0F00B80B1E81850203AA0E81850B1E817
:100AC0001850A0E81850BFF4F5AF5FEA027C24BFCD
:100AD000B1E81850A0E8185044BF18C918C0BDE8C4
:100AE00010405FEA827C24BF51F8043B40F8043B8D
:100AF00008BF7047D20728BF31F8023B48BF11F842
:100B0000012B28BF20F8023B48BF00F8012B70479B
:100B10004FF000020429C0F0128010F0030C00F026
:100B20001781CCF1040CBCF1020F18BF00F8012BA7
:100B3000A8BF20F8022BA1EB0C0100F009B95FEA75
:100B4000C17C24BF00F8012B00F8012B48BF00F83E
:100B5000012B7047004870479454002030B5B0F125
:100B60000A024FEA900E71F100034EEA817EB0EB6B
:100B70000E0061EB91014FEA101E4EEA017E10EB70
:100B80000E0041EB11114FEA102E4EEA016E10EBF0
:100B90000E0041EB11214FEA104E4EEA014E10EBD0
:100BA0000E0041EB1141401841F100014FEAD00025
:100BB00040EA41704FEAD10110EB80054FEA810411
:100BC00044EA907444EB01046D1944EB0404521B95
:100BD000A3414FF0000348BF0A3200D530BD401C8E
:100BE00041F1000130BD00002DE9F0411F460446EF
:100BF00003260168072A01F4006004DB08B116A58A
:100C000005E016A503E008B115A500E015A521F043
:100C100010002060A069C01EA0610FB1401EA0613D
:100C20002046AFF300804FB1D4E901213846904708
:100C3000206A401C2062C01C206206E0206AFAE79D
:100C4000D4E9012115F8010B9047761EF8D2204611
:100C5000AFF30080BDE8F0814E414E006E616E0042
:100C6000494E4600696E66002DE9F04781461646FA
:100C70008AB0334878440DC88DE80D003048784478
:100C8000801C03AC0DC884E80D0041F69B3008447D
:100C9000372190FBF1F290FBF1F5A5F1800501FB06
:100CA00012041B3C02D56442012000E00020DFF862
:100CB00090A080460027FA44AAF1BE0A0DE0E007A2
:100CC00009D03246684607EB47010AEB810100F084
:100CD0005AFB8DE8070064107F1C002CEFD1184FE1
:100CE0007F44AC3F18E0E80714D007EB04100DF187
:100CF000180A90E80E008AE80E00C068F04201D1A0
:100D000098190890324606A903A800F03CFB03ABF3
:100D100083E807006D10641C002DE4D1324669465B
:100D2000B8F1000F03A802D000F019FB01E000F0B9
:100D30002AFBC9E90001C9F808200AB0BDE8F0871C
:100D400048430000007B00F0800070474FF0000235
:100D500000B5134694469646203922BFA0E80C50B1
:100D6000A0E80C50B1F12001BFF4F7AF090728BF8C
:100D7000A0E80C5048BF0CC05DF804EB890028BF08
:100D800040F8042B08BF704748BF20F8022B11F031
:100D9000804F18BF00F8012B7047000000487047D3
:100DA000745400207546FFF7F9FFAE46050069460A
:100DB000534620F00700854618B020B5FFF772FAB9
:100DC000BDE820404FF000064FF000074FF000084C
:100DD0004FF0000B21F00701AC46ACE8C009ACE8CD
:100DE000C009ACE8C009ACE8C0098D4670470446AC
:100DF000AFF300802046FFF7F5F900004FF0013C0B
:100E000050F8042B51F8043B9A4221D1A2EB0C0379
:100E1000934313EACC1317D150F8042B51F8043B39
:100E20009A4215D1A2EB0C03934313EACC130BD1D6
:100E300050F8042B51F8043B9A4209D1A2EB0C0361
:100E4000934313EACC13DBD04FF00000704700BF90
:100E5000D01A01BAB1FA81F101F0180122FA01F0B9
:100E6000CB40C1F12001DBB2C0B2C01A2CFA01F3B1
:100E7000D11A914311EAC311E6D170475FEA400CE1
:100E800008BF91F0000F4FEA8C234FEAC12243EADA
:100E900051514FEA1C5018BF00F5F0404FEA3000A6
:100EA00018BF41F000415FEA6C5C00F02980BCF1A2
:100EB000FF3F08BF40F080407047130C06BF12048C
:100EC0004FF0100C4FF0000C130E04BF12020CF187
:100ED000080C130F04BF12010CF1040C930F04BF94
:100EE00092000CF1020CD30F04BF52000CF1010C64
:100EF00011464FF00002A0F11F00A0EB0C0070475C
:100F000011F0004F08BF704731F000413FF4D5AFFA
:100F10000B0C06BF09044FF0100C4FF0000C0B0E29
:100F200004BF09020CF1080C0B0F04BF09010CF1FE
:100F3000040C8B0F04BF89000CF1020CCB0F04BF13
:100F400049000CF1010CCCF12003A0EB0C0022FABB
:100F500003F302FA0CF241EA030100F101007047C9
:100F600020F07F4C80EA030023F07F47ACEB0703BF
:100F700003F57C5300F0004003F1FF032DE98049A5
:100F80004FEA154B09B44FEA144325EA0B4E24EA05
:100F900003480FF2042606EB132749083E785FEA60
:100FA000320203FB0667C7F5000707FB06F64FEAA8
:100FB00054374FEAD64606F1020607FB066CCCF121
:100FC000005C4FEA1C472CEA074C07FB06F40CFBBD
:100FD00006F504EB15464FEA961634BF00204FF095
:100FE00000404FEAD13706FB07FC4FEA1C4C0CFBD4
:100FF0000BF7D21B03FB0CF761EB07010CFB0EF7A1
:10100000B0EB074072EB17420CFB08F734BFA2EBC2
:101010000742B2EB074261EB17414FEA0C444FEA3B
:10102000910706FB07FC4FEA1C4C0CFB0BF7B0EBDF
:10103000C74072EB573203FB0CF734BFA2EBC74239
:10104000B2EBC74261EB57310CFB0EF7B0EBC700B8
:1010500072EB57720CFB08F734BFA2EBC702B2EB7E
:10106000C70261EB5771039F4FEA816141EA921118
:1010700004EBCC044FEAD1374FEA826206FB07FC4F
:1010800042EA90124FEA80604FEA1C4C0CFB0BF7CF
:10109000D21B03FB0CF761EB07010CFB0EF7B0EB67
:1010A000074072EB17420CFB08F734BFA2EB074274
:1010B000B2EB074261EB17414FEA8C554FEA9107BB
:1010C00004EB9C2406FB07FC4FEA1C4C0CFB0BF7C3
:1010D000B0EBC74072EB573203FB0CF734BFA2EB07
:1010E000C742B2EBC74261EB57310CFB0EF7B0EBD6
:1010F000C70072EB57720CFB08F734BFA2EBC702B4
:10110000B2EBC70261EB577115EB4C254FEA8161D9
:1011100041EA92114FEA82624FEAD13742EA9012D5
:1011200006FB07FC44F100044FEA80604FEA1C4CC8
:101130000CFB0BF7D21B03FB0CF761EB07010CFB5D
:101140000EF7B0EB074072EB17420CFB08F734BF09
:10115000A2EB0742B2EB074261EB174115EB1C15FE
:101160004FEA813141EA92414FEA823242EA9042AB
:101170004FEA80304FEA0C7644F1000448EA03431A
:101180004EEA0B484FF0000EB2EB080C71EB030770
:1011900024BF624639464EEB0E0E4FF0000B00188E
:1011A000524149414BEB0B0BB2EB080C71EB0307BF
:1011B0007BF1000B24BF624639464EEB0E0E4FF01A
:1011C000000B0018524149414BEB0B0BB2EB080CE2
:1011D00071EB03077BF1000B24BF624639464EEBEF
:1011E0000E0E51EA020718BF46F0010616EB0E7606
:1011F00055F1000254F1000103D5BDE88901BDE8B5
:101200000088BDE88901BDE80048B619524141EBAC
:101210000101A3F10103704780807F7E7D7C7B7A92
:101220007978777676757473727171706F6E6E6D92
:101230006C6C6B6A6A696868676666656464636338
:1012400062616160605F5F5E5E5D5D5C5C5B5B5ABE
:101250005A5959585857575656555555545453532B
:1012600052525251515050504F4F4F4E4E4D4D4D86
:101270004C4C4C4B4B4B4A4A4A49494948484847D1
:10128000474747464646454545444444444343430F
:101290004342424242414141002B26D4770021D0B3
:1012A0001CB54FEA370703B44FF010004FF01001A0
:1012B0004FF000000FBCBDE810400BF1010BBBF17B
:1012C000010F08BF5FEA170722BF12F1010211F1F7
:1012D00001014FF0004143F1000300F0004043EAF8
:1012E00000007047F9D35708DAE746EA064613F1DB
:1012F000400F4FEA16461FDD13F1200FDFBF1643E4
:101300000A46002120335B42C8D0C3F1200746EAD9
:10131000064602FA07F74FEA164646EA0706C3F101
:10132000200722FA03F201FA07F721FA03F14FF03E
:10133000000342EA0702B1E746EA020646EA064629
:101340004FEA164646EA0106BCBF46EA0646360C98
:101350004FF000034FF000024FF000019EE72DE92F
:10136000C048934630B491E8380007C831EA400CD1
:1013700048BF34EA430C03D5FFF7F2FDFFF78CFFBB
:10138000F0BCBDE800882DE9C048934630B491E830
:10139000380007C810F0804F08BF13F0804F03D10A
:1013A00000F005F8FFF778FFF0BCBDE8008820F0FA
:1013B0007F4780EA030023F07F4C07EB0C03A3F583
:1013C0007C5300F00040A3F1FE0392F0000F00F008
:1013D000B38095F0000F00F077802DE901494FEAC6
:1013E00011404FEA144621EA004800FB06FC24EABB
:1013F000064708FB06F607FB08F800FB07F718EBA3
:1014000006484CEB164C4FEA124B18EB07484FEAD4
:1014100015464CEB174022EA0B4E0BFB06FC25EA67
:1014200006470EFB06F607FB0EFE0BFB07F71EEB4F
:10143000064E4CEB164C4FF000061EEB074E4CEBE5
:10144000174B18EB0B0840F1000018EB0E0B58EB94
:10145000000840F100008F1A4FF000013CBFC94363
:10146000661B14BFB5EB040C00213CBFC943F61B3F
:101470004FEA17444EEA8E0E27EA04454FEA1C470E
:1014800004FB07622CEA074C05FB07F70CFB05F68B
:1014900004FB0CFC16EB074642EB174216EB0C461E
:1014A00042EB1C421BEB060658EB0202414146EAA6
:1014B0009E0601D5BDE80189B619524141EB0101F3
:1014C000A3F10103BDE801894FEA14454FEA114732
:1014D00024EA054621EA074C05FB07F406FB07F75B
:1014E0000CFB06F105FB0CFC11EB074144EB174428
:1014F0004FEA124711EB0C4144EB1C4422EA074C23
:1015000005FB07F206FB07F70CFB06F605FB0CFCD8
:1015100016EB074642EB174216EB0C4642EB1C4516
:101520006A1854F1000148BF7047B619524141EBA7
:101530000101A3F10103704795F0000F37D04FEA86
:1015400011424FEA144721EA024624EA074C02FB03
:1015500007F106FB07F70CFB06F402FB0CFC14EB8F
:10156000074441EB17414FEA154714EB0C4441EB9C
:101570001C4125EA074C02FB07F506FB07F70CFBAD
:1015800006F602FB0CFC16EB074645EB174516EB7F
:101590000C4645EB1C42121951F1000148BF70473F
:1015A000B619524141EB0101A3F1010370474FEA23
:1015B00014454FEA114724EA054621EA074C05FB8A
:1015C00007F106FB07F70CFB06F24FF0000605FBE0
:1015D0000CFC12EB074241EB174112EB0C4251EBB2
:1015E0001C4148BF7047921841EB0101A3F1010370
:1015F000704710B500F002F810BD000008B50121D9
:10160000082000F029FB4FF48070ADF80000102096
:101610008DF8030003208DF802006946044800F0AD
:1016200000F94FF48071024800F08FF908BD000006
:10163000000C014000BFFEE710B50024002000F0C0
:10164000C1F804E0601CC4B2012000F087FE0D4820
:10165000006808B1642CF5DB642C01DB012010BDAF
:10166000002404E0601CC4B2012000F077FE0548AD
:10167000006808B9642CF5DB642C01DB0120EEE77F
:101680000020ECE72C01244210B5002404E0601C8B
:10169000C4B2012000F062FE0D48006808B1642C5D
:1016A000F5DB002404E0601CC4B2012000F056FE0B
:1016B0000748006808B9642CF5DB282000F04EFECE
:1016C0000348006808B1012010BD0020FCE70000BD
:1016D0002C01244270B50024002506E06006040EAB
:1016E000FFF7D2FF0443681CC5B2082DF6DB204685
:1016F00070BD00002DE9FC4705460E4600F04AF893
:10170000FFF79AFF00283DD1002405E0FFF7E2FF34
:101710000DF80400601CC4B2052CF7DB9DF8000036
:101720009DF8011008449DF8021008449DF803102C
:1017300008449DF80410884227D19DF8010003F069
:101740002BFB8146124903F065FA07469DF800001D
:1017500003F022FB8046394603F0FAF930609DF829
:10176000030003F019FB8146094903F053FA0746C9
:101770009DF8020003F010FB8046394603F0E8F9BB
:10178000286002E00220BDE8FC870020FBE70000A3
:101790000000204110B5012000F014F80020064997
:1017A0000860142000F0FEFD01200449C1F8AC01DE
:1017B0001E2000F0D3FD10BDAC01244200002442E5
:1017C0007047000038B504460121080200F044FAD1
:1017D000012C0DD1E002ADF8000003208DF80200CD
:1017E00010208DF803006946084800F01AF80BE055
:1017F00054B94FF40060ADF8000028208DF80300C4
:101800006946024800F00DF838BD00000020014094
:1018100010B50120FFF7D6FFFFF7BCFFFFF70CFF65
:1018200010BD2DE9F04102460025002600200023CE
:101830000024002791F803C00CF00F0591F803C0B5
:101840000CF0100CBCF1000F03D091F802C04CEA70
:10185000050591F800C0BCF1000F31D014680020DC
:101860002BE04FF0010C0CFA00F3B1F800C00CEAC9
:1018700003069E4220D183004FF00F0C0CFA03F7B1
:10188000BC4305FA03FC4CEA040491F803C0BCF124
:10189000280F06D14FF0010C0CFA00FCC2F814C05E
:1018A0000AE091F803C0BCF1480F05D14FF0010CDC
:1018B0000CFA00FCC2F810C0401C0828D1D31460F8
:1018C000B1F800C0BCF1FF0F34DD546800202EE0F9
:1018D00000F1080C4FF0010808FA0CF3B1F800C051
:1018E0000CEA03069E4221D183004FF00F0C0CFA44
:1018F00003F7BC4305FA03FC4CEA040491F803C067
:10190000BCF1280F05D100F1080C08FA0CF8C2F858
:10191000148091F803C0BCF1480F07D100F1080C06
:101920004FF0010808FA0CF8C2F81080401C082893
:10193000CED35460BDE8F0810246002093680B408E
:101940000BB1012000E00020704741617047016148
:10195000704700BFFEE7000010B54FF4407000F084
:1019600061F900F0ADFC4FF4165001F0E1FC4FF4CA
:10197000165001F017FD00F0EFF8FFF73AFE00F007
:1019800065F84FF47A7000F0C9FCFFF741FF044698
:101990001CB907A0FEF79AFC03E0214609A0FEF758
:1019A00095FC40F27121042000F024F810BD0000E5
:1019B000646874313120636865636B206F6B210D3F
:1019C0000A000000646874313120636865636B202D
:1019D0006661696C2025640D0A0000004CF6CC405D
:1019E00001490860704700000030004010B500F069
:1019F00013F810BD70B505460C4645F2555000F081
:101A00001FF8284600F010F8204600F013F800F008
:101A100003F8FFF7E3FF70BD4AF6AA20014908600A
:101A200070470000003000400149486070470000E6
:101A300000300040014988607047000000300040DD
:101A400001490860704700000030004010B500F008
:101A500065F810BD10B5044614B101202C4908707A
:101A60002B480078002837D010212A48FFF764FF60
:101A700078B108212748FFF75FFF50B104212548BE
:101A8000FFF75AFF28B101212348FFF755FF01282E
:101A900022D10A2000F042FC00201D4908701021CC
:101AA0001C48FFF749FF08B9012010BD082119485B
:101AB000FFF742FF08B90220F7E704211548FFF7B6
:101AC0003BFF08B90320F0E701211348FFF734FF7B
:101AD00001281BD10420E8E710210E48FFF72CFF56
:101AE000012813D108210B48FFF726FF01280DD14B
:101AF00004210848FFF720FF012807D101210648EB
:101B0000FFF71AFF10B90120014908700020CCE747
:101B10002C000020001801400008014008B50121F8
:101B2000442000F099F81C20ADF8000048208DF802
:101B3000030069460648FFF774FE0120ADF8000077
:101B400028208DF8030069460248FFF76AFE08BDA9
:101B5000001801400008014010B500F001F810BD68
:101B600008B50121482000F077F82020ADF80000EA
:101B700010208DF8030003208DF802006946094803
:101B8000FFF74FFE20210748FFF7E1FE2020ADF8C8
:101B9000000069460448FFF744FE20210248FFF791
:101BA000D6FE08BD000C01400018014000BFFEE752
:101BB0007047000070B5002100230F22C47804B3E1
:101BC000154C246804F4E064C4F5E064210AC1F112
:101BD0000403CA40447804FA03F184781440214392
:101BE00009010E4C0678A155047804F01F05012464
:101BF000AC4005786D11AD0005F1E025C5F8004158
:101C000009E0047804F01F050124AC40044D067877
:101C1000761145F8264070BD0CED00E000E400E0D0
:101C200080E100E002490143024A11607047000070
:101C30000000FA050CED00E029B1064AD269024322
:101C4000044BDA6104E0034AD2698243014BDA6152
:101C5000704700000010024029B1064A9269024311
:101C6000044B9A6104E0034A92698243014B9A61F2
:101C700070470000001002400348406A40F0807046
:101C800001494862704700000010024030B5002151
:101C90000022002400232D4D6D6805F00C0121B1B8
:101CA000042905D0082923D105E0294D056022E04B
:101CB000274D05601FE0254D6D6805F47012234D1A
:101CC0006D6805F48034022505EB92421CB9214D64
:101CD000554305600BE01D4D6D6805F400351DB1E1
:101CE0001C4D5543056002E0194D5543056002E067
:101CF000174D056000BF00BF144D6D6805F0F00181
:101D00000909154D6B5C0568DD4045600F4D6D6838
:101D100005F4E061090A104D6B5C4568DD408560A3
:101D20000A4D6D6805F46051C90A0B4D6B5C45683E
:101D3000DD40C560054D6D6805F44041890B074DD8
:101D40006B5CC568B5FBF3F5056130BD0010024062
:101D500000127A0000093D003C0000204C000020E9
:101D600010B501460022002300204A11012A02D1A9
:101D7000094C236806E0022A02D1074C236A01E0DD
:101D8000054C636A01F01F02012494401C400CB111
:101D9000012000E0002010BD0010024010B500F04E
:101DA00001F810BD0CB50020019000903348006888
:101DB00040F480303149086000BF3048006800F4CA
:101DC000003000900198401C0190009818B90198CB
:101DD000B0F5A06FF1D12948006800F4003010B1CF
:101DE0000120009001E0002000900098012843D1DC
:101DF0002348006840F01000214908600846006848
:101E000020F0030008600846006840F00200086007
:101E10001A484068194948600846406848600846C2
:101E2000406840F4806048600846406820F47C10B8
:101E300048600846406840F4E8104860084600687A
:101E400040F08070086000BF0C48006800F000702F
:101E50000028F9D00948406820F00300074948608D
:101E60000846406840F00200486000BF03484068F0
:101E700000F00C000828F9D10CBD00000010024051
:101E800000200240042808D14FF0E021096941F008
:101E900004014FF0E022116107E04FF0E0210969F1
:101EA00021F004014FF0E0221161704710B502F0FB
:101EB0005FFB012801D001F0E1FF10BD10B5134810
:101EC000006840F001001149086008464068104968
:101ED00008400E494860084600680E4908400B4912
:101EE00008600846006820F48020086008464068C2
:101EF00020F4FE0048604FF41F008860FFF74EFF9B
:101F00004FF000600449086010BD0000001002405E
:101F10000000FFF8FFFFF6FE08ED00E010B501211C
:101F2000044800F00CF818B10121024800F004F850
:101F300010BD000000040040CA430282704730B563
:101F40000246002000230024158A05EA0103958932
:101F500005EA010413B10CB1012000E0002030BDFE
:101F600010B540F22551164800F085F880B140F2D6
:101F70002551134800F064F8114800F037F9114971
:101F8000114A1278885410480078401C0E49087095
:101F900040F224410A4800F06EF880B108480088F9
:101FA0000748001D00880020074908703CB14FF029
:101FB000805006490860BFF34F8FBFF36F8F10BD8D
:101FC00000380140C40000203000002004ED00E093
:101FD00010B540F22551164800F04DF880B140F29E
:101FE0002551134800F02CF8114800F0FFF8114972
:101FF000114A1278885410480078401C0E49087025
:1020000040F224410A4800F036F880B108480088C0
:102010000748001D00880020074908703CB14FF0B8
:10202000805006490860BFF34F8FBFF36F8F10BD1C
:1020300000480040F60000203200002004ED00E0DF
:1020400010B50022002340F66A14A14200D100BF5F
:102050000A1201249440A3B2DC43048010BD21B1D4
:10206000828942F40052828104E082894DF6FF7336
:102070001A408281704770B5024600240023002573
:10208000002040F66A16B14200D100BFC1F34215EC
:1020900001F01F03012606FA03F3012D02D19689F0
:1020A000334006E0022D02D1168A334001E0968AC1
:1020B00033400C12012606FA04F41688344013B19A
:1020C0000CB1012000E0002070BDF0B503460024F3
:1020D00000260025002040F66A17B94200D100BF53
:1020E0001846C1F3421401F01F06012707FA06F54E
:1020F000012C01D10C3004E0022C01D1103000E0A1
:1021000014301AB107682F43076002E00768AF4335
:102110000760F0BD2DE9F04786B005460E46002465
:10212000A24600BFA1460027B08900B100BF2F46DC
:102130002C8A4CF6FF700440F08804432C82AC8952
:102140004EF6F3100440B088318908437189084382
:102150000443AC81AC8A4FF6FF400440B08904438D
:10216000AC8201A8FFF792FD1F48874202D1DDF83B
:1021700010A001E0DDF80CA0A88900F4004040B1F7
:102180000AEBCA0000EB0A1031684900B0FBF1F815
:1021900007E00AEBCA0000EB0A1031688900B0FBC7
:1021A000F1F86420B8FBF0F004012009642101FB80
:1021B0001089A88900F4004040B1322000EBC9002A
:1021C000B0FBF1F000F00700044308E0322000EB20
:1021D00009106421B0FBF1F000F00F0004432C81E2
:1021E00006B0BDE8F087000000380140014688884D
:1021F000C0F308007047000008B501210420FFF774
:102200002BFD4FF40070ADF8000003208DF80200A4
:1022100018208DF8030069460748FFF702FB4FF4CA
:102220008060ADF8000004208DF803006946024884
:10223000FFF7F7FA08BD00000008014008B50121CA
:102240000820FFF709FD4FF48060ADF8000003207F
:102250008DF8020018208DF8030069460748FFF743
:10226000E0FA4FF40060ADF8000004208DF80300A0
:1022700069460248FFF7D5FA08BD0000000C01408E
:1022800000BFFEE7490050EAC12018BF04204A0DF4
:1022900018BF40F0010040F2FF72B2EB515F08BF7F
:1022A00040F00200012808BF0520704730380A2896
:1022B00001D2012070470020704700BF7047000026
:1022C00010B50420FFF7DEFD104800681049B0FB90
:1022D000F1F0104908700D4800680D49B0FBF1F4A9
:1022E0004FF47A70444301200B4908804FF0E020FE
:1022F000006940F002004FF0E021086108464461A7
:10230000006940F00100086110BD000018000020C5
:1023100040420F00380000203A00002070B504460B
:1023200002F026F9012810D00B480088844206D319
:1023300009480088B4FBF0F5284601F02BFA06485E
:102340000088B4FBF0F100FB11444FF47A7104FBF8
:1023500001F000F003F870BD3A00002070B50346AC
:1023600000224FF0E02675690D4E367803FB06F427
:102370004FF0E026B16910E04FF0E026B0698842E6
:102380000BD0884202D20E1A324402E02E1A0E44BA
:1023900032440146A24200D300E0EDE700BF70BD29
:1023A0003800002030B50446002504E04FF47A7070
:1023B000FFF7D4FF6D1CA542F8D330BD00BF054A1E
:1023C000128802F04002002AF9D0C2B2014B1B1D54
:1023D0001A8070470038014005E0FFF707FB4FF413
:1023E000FA7001F0D7F9F8E71DE00020FFF732FBA3
:1023F0000446012C06D0022C09D0032C0CD0042C4E
:102400000CD10AE00848006801F00CFC07E006481F
:10241000006801F035FB02E001E000E000BF00BF12
:102420000A2001F0B7F9E0E70800002010E00948B1
:102430000068C0430849C1F894010848D0F89401E5
:10244000C0430649C1F894014FF4FA7001F0A2F9B3
:10245000EDE70000948121420080214200002342E8
:102460001CB5FFF779FA7D20FFF77AFC012808D127
:102470000CA0FDF72BFF01200F490860FFF7FCFBC4
:1024800002E000200C4908600C48012100233222A0
:10249000CDE900100AA10D4802F03AF801F06CFBFA
:1024A00000201CBD49574447207265736574206F36
:1024B0006E6365210D0A0000A0812142000000200A
:1024C00073746172745F7461736B0000D1310008C2
:1024D0002DE9F04105460E461C4807681C48006877
:1024E000001D00F099FF50B91948006890F82C10B1
:1024F0000120884017490968814316480160681C1B
:1025000038B936B112480168091D134800F0C2FFFE
:102510001AE07C190E4800684460BC4207D20C489F
:102520000168091D0D48006800F09AFF0CE008489A
:102530000168091D0A48006800F092FF0948006818
:10254000844201D207480460BDE8F08164000020A5
:1025500050000020680000203804002058000020AF
:10256000540000208000002010B5044600F09EFFBB
:1025700024480068401C234908602348006840B98B
:10258000214804600846006801280DD100F0EEF9EA
:102590000AE01E48006838B91B480068C06AE16A52
:1025A000884201D81848046019480068401C18493E
:1025B000086008460068606494F82C100120884088
:1025C00014490968084313490860E16A01EB810175
:1025D000114A02EB8100211D00F05CFF00F0AAFF10
:1025E0000A48006868B108480068C06AE16A884221
:1025F00007D24FF0805009490860BFF34F8FBFF3F7
:102600006F8F10BD60000020500000206C00002083
:102610007C000020680000206801002004ED00E03C
:1026200010B500F043FF10480068D0B90F4800F023
:1026300007FF0F4800F004FF0C480E4908600C48E3
:102640000D49086000221021052001F031FC0649E7
:1026500008600846006820B108A10348006801F03E
:102660005DF800F067FF10BD940000204C040020CE
:10267000600400208C00002090000020546D7251F6
:102680000000000070B523E001F04CFB1348006827
:1026900008B9012000E00020054602F0F5F8BDB9B8
:1026A00000F004FF0D48C068C468201D00F0B4FEAF
:1026B0000B480068401E0A4908600A480068401E2E
:1026C0000849086000F036FF204600F060F800BFBF
:1026D000044800680028D7D170BD00002404002001
:1026E000600000205C00002070B504460D46206CA0
:1026F00070B1216CE0680844E0606168E06888427D
:1027000001D32068E0602846226CE168FDF7D7FE1F
:1027100070BD2DE9F04104460F4615464FF0000804
:10272000A66B206C40B9206860BB606801F0E6FFD2
:1027300080460020606025E07DB93946226CA068A3
:10274000FDF7BDFE216CA0680844A060D4E901102B
:10275000884217D32068A06014E03946226CE068F4
:10276000FDF7ADFE216CE068401AE0602168E0688A
:10277000884203D2216C6068401AE060022D01D1CA
:1027800006B1761E701CA0634046BDE8F08110B50E
:102790000446206B00F006FF204600F003FF10BD4A
:1027A0000146084A126812680AB9012200E00022B4
:1027B0000A600A6822B9034A1268D268106800E009
:1027C000002070478C00002030B54FF4A04317481C
:1027D00000F007042CB1C01D20F00700134C041BAF
:1027E0001B1B0246124C22600024114D6C60D01855
:1027F000083820F007000F4C206000240D4D2D6894
:102800006C600C4D2D682C601146441A4C60094CCC
:1028100024680C60084D4C682C60084D4C682C6096
:102820004FF00044064D2C6030BD000074040020C1
:10283000AC000020B4000020BC000020B800002044
:10284000C000002000BFFFF71DFF064800680128F8
:10285000F9D94FF0805004490860BFF34F8FBFF3A0
:102860006F8FF0E76801002004ED00E02DE9F041F2
:1028700006460D4617469846069C0DB9246000E0B2
:102880002760E66325640121204601F02FFC84F8CF
:1028900050800020A064BDE8F08100002DE9F05FC9
:1028A00082460F4690469B460A9E0C9C4FEA880142
:1028B000A522206BFDF748FEA8F10100216B01EB7A
:1028C000800929F0070909F0070008B9012000E094
:1028D000002028B940F22B321BA120A0FDF7F6FC06
:1028E000002507E0795D04F134004155785D00B9B9
:1028F00002E06D1C102DF5D300BF002143200155CF
:10290000202E00D31F26E662E66400202065201DED
:1029100000F0A3FD04F1180000F09FFD2461C6F152
:102920002000A06164620020606584F858005A4667
:102930005146484600F03AFC20600B9808B10B98CD
:102940000460BDE8F09F00002E2E5C467265655263
:10295000544F535C7461736B732E63004572726FD6
:10296000723A25732C25640D0A00000010B500246E
:1029700007E004EB84010F4A02EB810000F060FDE8
:10298000641C202CF5D30C4800F05AFD0B4800F0D5
:1029900057FD0B4800F054FD0A4800F051FD0A486D
:1029A00000F04EFD044809490860044808490860E1
:1029B00010BD000068010020E8030020FC03002097
:1029C00010040020240400203804002054000020BB
:1029D0005800002010B50146164800E00068036862
:1029E0008B42FBD30246436813448B4204D14368B5
:1029F0004C682344436001460A464B68134404680C
:102A0000A34211D10C4C03682468A34208D04B6840
:102A10000468646823444B6003681B680B6005E02E
:102A2000054B1B680B6001E003680B60884200D017
:102A3000016010BDAC000020B40000202DE9F04181
:102A400004460D4616461F464FF000086560246197
:102A5000B5420CD8F01BA169884202D34FF001089F
:102A600011E0211D0948006800F0FAFC0BE0BE42AD
:102A700004D2BD4202D34FF0010804E0211D0448F6
:102A8000006800F0EDFC4046BDE8F08190000020B9
:102A90008C00002070B5054600F008FDA86B08B951
:102AA000012400E0002400F045FD204670BD70B513
:102AB000054600F0FBFCA86BE96B884201D10124BC
:102AC00000E0002400F036FD204670BD2DE9F34102
:102AD0000D460098846C00272CB940F6CE121AA13E
:102AE0001EA0FDF7F3FBA06BE16B884201D2012031
:102AF00000E0002028B940F6CF1213A117A0FDF77F
:102B0000E5FBA06BE16B88421BD294F945602A4635
:102B100069462046FFF7FDFD0746701C60B9606AF4
:102B200008B9012000E0002050B904F1240001F0B0
:102B300051FE28B1012703E0701C40B284F8450023
:102B400000BF3846BDE8FC812E2E5C46726565529A
:102B5000544F535C71756575652E63004572726FD5
:102B6000723A25732C25640D0A000000F8B505465D
:102B70000F4613480068C068C468201D00F04CFC74
:102B8000E069012818D1A06941192B463A46204630
:102B9000FFF754FF80B1002003462A46014600900B
:102BA000204601F03BFF06462EB94FF4027205A104
:102BB0000AA0FDF78BFB00BF2046616A8847F8BD7D
:102BC0008C0000202E2E5C4672656552544F535C7B
:102BD00074696D6572732E63000000004572726F38
:102BE000723A25732C25640D0A000000F0B587B0F9
:102BF00070E0039800280CDA04AE2EB940F2E72208
:102C00003AA140A0FDF762FBD6E90020B1689047E9
:102C100000BF039800285DDB059C606908B90120AE
:102C200000E0002010B9201D00F0F6FB02A800F023
:102C3000C7F8054603980A284AD2DFE800F00905DC
:102C4000072C2E4506082D2F00BF00BF00BF00BF78
:102C50000498A269811803462A462046FFF7EEFE33
:102C6000C0B12046616A8847E069012812D100207E
:102C700000900498A169421800231946204601F0EB
:102C8000CDFE07462FB940F2213218A11DA0FDF755
:102C90001DFB00BF1DE000BF1BE000BF0498A0614A
:102CA000A06908B1012000E0002028B94FF44E725D
:102CB0000EA114A0FDF70AFBA06941192B462A4674
:102CC0002046FFF7BBFE04E0204600F06BFC00E06E
:102CD00000BF00BF00231A4603A90E48006801F098
:102CE00021F9002885D107B0F0BD00002E2E5C46EA
:102CF00072656552544F535C74696D6572732E63CF
:102D0000000000004572726F723A25732C25640D25
:102D10000A00000094000020F8B505460C4601F0BA
:102D200001F8684600F04CF80646009820BB44B90C
:102D3000B54206D801F0A8FD31462846FFF716FF38
:102D40001CE03CB10E480068006808B9012000E0B2
:102D500000200446A91B22460A48006800F0F4FC43
:102D600001F092FD50B94FF0805007490860BFF361
:102D70004F8FBFF36F8F01E001F086FDF8BD0000BB
:102D8000900000209400002004ED00E00A4909684A
:102D9000096809B9012100E0002121B14FF0FF319C
:102DA000064A116006E004490968C968C868034A10
:102DB000416811607047000054000020800000202E
:102DC00070B5044601F0E4FB0546074800688542FB
:102DD00004D200F00BF80120206001E00020206008
:102DE00001480560284670BD9C0000202DE9F8438D
:102DF0002DE021480068C06805681F480068C06869
:102E0000C468201D00F008FB2046616A8847E0691D
:102E100001281CD1A0694619AE4207D96660246119
:102E2000211D1548006800F01BFB10E00020034640
:102E30002A4601460090204601F0F0FD07462FB9D2
:102E400040F292320DA113A0FDF740FA00BF0A48EC
:102E50000068006808B9012000E000200028C8D000
:102E60000548D0F800800F480068034908600D4805
:102E7000C0F80080BDE8F8838C0000202E2E5C4650
:102E800072656552544F535C74696D6572732E633D
:102E9000000000004572726F723A25732C25640D94
:102EA0000A000000900000200B480068401C08B990
:102EB000012000E0002020B9F42208A112A0FDF7B3
:102EC00005FA00BF502080F31188BFF34F8FBFF386
:102ED0006F8F00BF00BFFEE7A00000202E2E5C46D3
:102EE00072656552544F535C706F727461626C65A9
:102EF0005C525644535C41524D5F434D335C706F9E
:102F000072742E63000000004572726F723A25736E
:102F10002C25640D0A00000070B5054600262C46DD
:102F20002DB940F281620EA112A0FDF7CFF915492B
:102F30006069884201D1012000E0002070B112498F
:102F4000A06A884201D1012000E0002030B9A06AC7
:102F500008B9012000E0002000B10126304670BD14
:102F60002E2E5C4672656552544F535C7461736BD0
:102F7000732E63004572726F723A25732C25640DAF
:102F80000A000000380400201004002008B500BF2B
:102F90006846FFF705FC044620460099FFF7BCFE93
:102FA000FFF724FEF4E770B5044600F07FFA94F9C9
:102FB00045501AE0A06C38B100212046FFF786FD8D
:102FC00088B100F0A7FC0EE0606A08B9012000E0BB
:102FD000002038B904F1240001F0FCFB18B100F026
:102FE00099FC00E003E0681E45B2002DE2DC00BF62
:102FF000FF2084F8450000F09DFA00F057FA94F99C
:10300000445010E0206908B9012000E0002048B9D0
:1030100004F1100001F0DEFB08B100F07BFC681E3B
:1030200045B200E001E0002DECDC00BFFF2084F899
:10303000440000F07FFA70BD2DE9F04104464FF0E6
:10304000000800F06FFE3E48006808B9FFF7BCFBBF
:103050003C480068204000285FD1A4B1083404F047
:10306000070080B104F00700C0F10800044404F038
:10307000070008B9012000E0002020B9BF2232A1DA
:103080003BA0FDF723F9002C47D03D48006884425F
:1030900043D83C4E3046056801E02E462D686868EE
:1030A000A04202D228680028F7D12548006885424E
:1030B00033D0306800F10808286830606868001B69
:1030C000102813D92F1907F0070008B9012000E0D4
:1030D000002020B9EC221CA125A0FDF7F7F86868B4
:1030E000001B78606C603846FFF774FC2449686800
:1030F0000968081A224908600846006822490968D8
:10310000884203D21E4800681F4908600D4968685C
:103110000968084368600020286001F0B5FB08F0EA
:10312000070008B9012000E0002028B94FF496728A
:1031300005A10FA0FDF7CAF84046BDE8F0810000E8
:10314000B4000020C00000202E2E5C46726565523F
:10315000544F535C706F727461626C655C4D656D49
:103160004D616E675C686561705F342E63000000BE
:103170004572726F723A25732C25640D0A000000A7
:10318000B8000020AC000020BC0000200648006809
:1031900030B10549096801F15000096D491C016011
:1031A000014800687047000050000020001F4FF0E9
:1031B00080730360001F21F001030360001F034BB5
:1031C000036014380260203870470000A92E000800
:1031D0001CB5044600F06AF900221021012000F01D
:1031E00067FE1A4908601A48042100238A01CDE9C4
:1031F000001018A11A4801F08BF91A480321002386
:103200004FF48072CDE9001017A11A4801F080F93F
:103210001948022100233222CDE9001017A11A48D3
:1032200001F076F91948052100234FF48072CDE9A9
:10323000001017A1194801F06BF919A0FDF746F825
:10324000002000F0E1FA00F075F91CBD1400002028
:103250000C0000206B65795F7461736B00000000E7
:10326000E9230008080000206C65645F7461736BDB
:10327000000000002D240008040000206977646726
:103280005F7461736B000000D923000810000020F8
:10329000746573745F7461736B000000B132000871
:1032A0005461736B2043726561746564210D0A007B
:1032B0001CB500200190009023E000F0F7F869466B
:1032C00001A8FEF717FA044600F034F994B9019802
:1032D00001F012FC05462A460B460AA0FCF7F6FF51
:1032E000009801F009FC05462A460B4608A0FCF7A9
:1032F000EDFF02E009A0FCF7E9FF4FF4FA6000F0EF
:1033000049FADAE774656D703D252E32660D0A00C4
:1033100068756D693D252E32660D0A0044485431AA
:10332000312052656164204661696C0D0A0000001D
:1033300010B586B00446FEF75FFF01218803FEF753
:103340008BFC02940020ADF80C00ADF80E00ADF837
:103350001000ADF814000C20ADF8120002A91048BE
:10336000FEF7D8FE25208DF8040006208DF8050014
:1033700001208DF8070001A8FEF71CFC012240F295
:1033800025510748FEF7A1FE012240F224410448DE
:10339000FEF79BFE01210248FEF761FE06B010BD5C
:1033A0000038014010B586B00446FEF747FF012102
:1033B0008804FEF741FC02940020ADF80C00ADF843
:1033C0000E00ADF81000ADF814000C20ADF812009E
:1033D00002A91048FEF79EFE27208DF80400072062
:1033E0008DF8050001208DF8070001A8FEF7E2FB2B
:1033F000012240F225510748FEF767FE012240F204
:1034000024410448FEF761FE01210248FEF727FE31
:1034100006B010BD0048004001460A69D1E90130FC
:103420009860D1E9010358605068884201D18868EA
:103430005060002008611068401E106010687047DE
:1034400000F1080141604FF0FF31816000F1080197
:10345000C160016100210160704700210161704776
:1034600010B502460B685C1C0CB9106907E002F14C
:10347000080000E04068446824689C42FAD9446827
:103480004C604C68A160886041600A611468641CEB
:10349000146010BD42684A6093688B6093685960FD
:1034A0009160086103685B1C0360704710B500BF42
:1034B000502080F31188BFF34F8FBFF36F8F00BF91
:1034C0000B480068401C0A4908600846006801284B
:1034D0000DD108480068C0B208B9012000E0002002
:1034E00028B94FF4BD7204A10EA0FCF7EFFE10BD89
:1034F000A000002004ED00E02E2E5C4672656552AF
:10350000544F535C706F727461626C655C525644C8
:10351000535C41524D5F434D335C706F72742E6348
:10352000000000004572726F723A25732C25640DFD
:103530000A00000010B50B48006828B940F281125B
:1035400009A114A0FCF7C2FE06480068401E054908
:1035500008600846006820B9002080F3118800BF89
:1035600000BF10BDA00000202E2E5C467265655283
:10357000544F535C706F727461626C655C52564458
:10358000535C41524D5F434D335C706F72742E63D8
:10359000000000004572726F723A25732C25640D8D
:1035A0000A00000070B506463546002E35D0083DAD
:1035B0002C461A4960680968084008B1012000E0FB
:1035C000002028B94FF4A07215A11FA0FCF77EFEC1
:1035D000206808B9012000E0002028B940F241121B
:1035E0000FA119A0FCF772FE0C4960680968084039
:1035F00098B1206888B909496068096888436060A3
:1036000000F090FB1449606809680844124908609A
:103610002046FFF7DFF901F037F970BDC000002048
:103620002E2E5C4672656552544F535C706F7274F7
:1036300061626C655C4D656D4D616E675C6865616E
:10364000705F342E630000004572726F723A25730A
:103650002C25640D0A000000B80000200648006810
:103660004FF47A71B0FBF1F0401E4FF0E021486159
:1036700007200861704700001800002070B5FCF7B3
:10368000FFFD0546102D11D305F1E02090F8F04321
:1036900010480078844201DB012000E0002028B9B6
:1036A0004FF42A720CA117A0FCF710FE194800680D
:1036B00000F4E06018490968884201D8012000E060
:1036C000002028B94FF42E7203A10EA0FCF7FEFDD6
:1036D00070BD0000A40000202E2E5C46726565526D
:1036E000544F535C706F727461626C655C525644E7
:1036F000535C41524D5F434D335C706F72742E6367
:10370000000000004572726F723A25732C25640D1B
:103710000A0000000CED00E0A80000200246002096
:103720000BE0084B53F8303033B9064B43F83010F8
:1037300003EBC0035A6002E0401C0828F1D300BF2D
:1037400070470000280100202DE9F04105460E4693
:1037500017462C46FFF7AAFE94F94400401C10B906
:10376000002084F8440094F94500401C10B9002062
:1037700084F84500FFF7DEFEA06B28B93A463146D3
:1037800004F1240000F0F6F82046FFF70CFCBDE839
:10379000F081000070B504460025ACB10F48006808
:1037A00008B9012000E0002028B940F2CF420CA166
:1037B00010A0FCF78BFD00F0B5FA00212046FEF7C3
:1037C00087FE01F061F805463DB94FF080500D4984
:1037D0000860BFF34F8FBFF36F8F70BD880000206C
:1037E0002E2E5C4672656552544F535C7461736B48
:1037F000732E63004572726F723A25732C25640D27
:103800000A00000004ED00E070B50546FFF74EFE2B
:1038100015B92D48006800E028460446201DFFF732
:10382000FBFD78B9E06A00EB8000284951F82000E0
:1038300040B994F82C10012088402549096881433B
:1038400023480160A06A18B104F11800FFF7E4FDF5
:1038500020480068401C1F4908601B4800688442DB
:1038600009D1211D1C48FFF715FE1C480068401CAB
:103870001A49086009E01A480068401E18490860A3
:103880002046FEF784FFFFF781FAFFF753FE154845
:103890000068C0B10C480068844214D11248006826
:1038A00008B9012000E0002028B940F265420FA1CC
:1038B00013A0FCF70BFD4FF0805015490860BFF3D3
:1038C0004F8FBFF36F8F70BD500000206801002044
:1038D000680000207C000020240400205C00002000
:1038E000600000206C000020880000202E2E5C4626
:1038F00072656552544F535C7461736B732E630031
:103900004572726F723A25732C25640D0A0000000F
:1039100004ED00E0012001490860704774000020B8
:1039200070B504460D462CB940F6063207A10CA02E
:10393000FCF7CCFC0E48016818312046FFF790FDDB
:1039400001212846FEF7C4FD70BD00002E2E5C4606
:1039500072656552544F535C7461736B732E6300D0
:103960004572726F723A25732C25640D0A000000AF
:103970005000002070B505460E4614462DB940F69D
:10398000313209A10DA0FCF7A1FC104801681831E3
:103990002846FFF77FFD0CB14FF0FF362146304639
:1039A000FEF796FD70BD00002E2E5C4672656552D6
:1039B000544F535C7461736B732E63004572726F66
:1039C000723A25732C25640D0A0000005000002077
:1039D00070B505462C46002D4BD02649E06A096893
:1039E000C96A884245D2A06900F0004028B9214840
:1039F0000068C06AC0F12000A061E16A01EB8101AA
:103A00001D4A02EB81016069884201D1012000E07A
:103A1000002050B3201DFFF7FFFC78B9E06A00EBEF
:103A20008000154951F8200040B994F82C1001206D
:103A30008840124909688143104801600D480068B8
:103A4000C06AE06294F82C10012088400B49096894
:103A500008430A490860E16A01EB8101064A02EB6A
:103A60008100211DFFF716FD03E002480068C06ACF
:103A7000E06270BD50000020680100206800002056
:103A800070B505462C462DB940F2AB621AA11FA0B5
:103A9000FCF71CFC74B32148006884422AD0FFF76D
:103AA00005FD2046FFF738FA10B3201DFFF7B4FCE0
:103AB00094F82C10012088401949096808431849D6
:103AC0000860E16A01EB8101164A02EB8100211DC9
:103AD000FFF7E0FC1149E06A0968C96A884207D328
:103AE0004FF0805010490860BFF34F8FBFF36F8FC6
:103AF000FFF720FD70BD00002E2E5C4672656552FA
:103B0000544F535C7461736B732E63004572726F14
:103B1000723A25732C25640D0A0000005000002025
:103B2000680000206801002004ED00E010B50446A4
:103B30002CB940F6C13205A109A0FCF7C7FB0C481F
:103B4000006820600B480068606010BD2E2E5C4647
:103B500072656552544F535C7461736B732E6300CE
:103B60004572726F723A25732C25640D0A000000AD
:103B700078000020640000201CB51A4800210B4684
:103B80008222CDE9001018A1194800F0C1FC0446BA
:103B9000012C02D100F008FF0446012C15D100BF12
:103BA000502080F31188BFF34F8FBFF36F8F00BF9A
:103BB0004FF0FF300F49086001200F4908600020D6
:103BC0000E49086000F00AF90BE0601C08B1012002
:103BD00000E0002028B940F2847209A10DA0FCF792
:103BE00075FB1CBD8400002049444C4500000000CA
:103BF00045280008800000206C00002064000020A0
:103C00002E2E5C4672656552544F535C7461736B23
:103C1000732E63004572726F723A25732C25640D02
:103C20000A00000070B50546FFF740FC15B92C48A6
:103C3000006800E028460446201DFFF7EDFB78B938
:103C4000E06A00EB8000274951F8200040B994F861
:103C50002C100120884024490968814322480160D2
:103C6000A06A18B104F11800FFF7D6FB211D1F4808
:103C7000FFF710FCFFF75EFC1D48006828B1FFF756
:103C800015FCFFF783F8FFF755FC154800688442E0
:103C900024D117480068A8B11648006808B9012067
:103CA00000E0002028B940F2576213A117A0FCF7EA
:103CB0000DFB4FF0805019490860BFF34F8FBFF3E1
:103CC0006F8F0BE00948006815490968884203D1E5
:103CD00000200349086001E000F02CF870BD0000EE
:103CE00050000020680100206800002038040020F7
:103CF0006C000020880000202E2E5C467265655204
:103D0000544F535C7461736B732E63004572726F12
:103D1000723A25732C25640D0A00000004ED00E0C2
:103D20006000002002480068401C0149086070479C
:103D30008800002010B51B48006818B101201A49FE
:103D400008602DE000201849086018480068B0FAA3
:103D500080F0C0F11F0404EB8400154951F82000E5
:103D600008B1012000E0002028B940F6F62211A198
:103D700015A0FCF7ABFA04EB84010D4A02EB8100BD
:103D800041684968416000F1080142688A4202D1F5
:103D90004168496841604168C9680F4A116000BFC5
:103DA00010BD000088000020740000206800002082
:103DB000680100202E2E5C4672656552544F535C9C
:103DC0007461736B732E63004572726F723A257360
:103DD0002C25640D0A000000500000201CB522486C
:103DE000014609780191FF210246117001460978C8
:103DF00000919DF8001001F050011C4A117007213C
:103E00001B4A116009E01A490968491E184A1160E5
:103E10009DF800104906090E00919DF8001001F070
:103E200080018029EFD0124909680902104A116007
:103E30001146098801F4E06111600B4A0199117083
:103E40000C48006840F470000A49086008460068A1
:103E500040F070400860FFF701FC00200649086050
:103E6000FCF7D8F900201CBD00E400E0A40000200D
:103E7000A800002020ED00E0A000002010B500BF49
:103E8000502080F31188BFF34F8FBFF36F8F00BFB7
:103E900000F084FB18B14FF080500449086000BF67
:103EA000002080F3118800BF10BD000004ED00E089
:103EB0002DE9F84305460E4690460DB1012000E07D
:103EC000002028B94FF4C4720DA112A0FCF7FEF92E
:103ED0000EB9002701E005FB06F707F15400FFF7D4
:103EE000ABF8044644B104F1540943464A4631460E
:103EF00028460094FEF7BAFC2046BDE8F88300008F
:103F00002E2E5C4672656552544F535C7175657513
:103F1000652E63004572726F723A25732C25640D0D
:103F20000A0000002DE9FF4782B005460E461F46F5
:103F30004FF0000A2C462CB940F2DC4261A166A089
:103F4000FCF7C4F90EB9206C08B9012000E000208C
:103F500028B940F2DD425BA15FA0FCF7B7F900F0A1
:103F600007FB08B9049808B9012000E0002028B92F
:103F70004FF49C6253A158A0FCF7A8F900BFFFF7CB
:103F800095FAD4F83890B9F1000F3DD0D4F80C80F0
:103F900031462046FEF7A8FBDFB9A9F10100A06376
:103FA000206810B9FFF7F2F86060206908B90120B5
:103FB00000E0002010BB04F1100000F00BFCE8B1A1
:103FC0004FF0805048490860BFF34F8FBFF36F8FA9
:103FD00014E0C4F80C80606A08B9012000E00020F9
:103FE00060B904F1240000F0F5FB38B14FF08050C7
:103FF0003D490860BFF34F8FBFF36F8FFFF79AFA09
:10400000012006B0BDE8F087049818B9FFF792FACE
:104010000020F6E7BAF1000F04D16846FFF786FDED
:104020004FF0010AFFF786FAFFF77CFEFFF73EFA32
:1040300094F94400401C10B9002084F8440094F91D
:104040004500401C10B9002084F84500FFF772FAC3
:1040500004A9684600F00CFA40BB2046FEF71AFDA2
:10406000F0B1206830B9FFF721FA6068FFF7B0FCC3
:10407000FFF760FA04F124000499FFF751FC204691
:10408000FEF791FF00F000FC00287FF478AF4FF0BE
:10409000805015490860BFF34F8FBFF36F8F6EE7F5
:1040A0002046FEF780FF00F0EFFB68E72046FEF7B2
:1040B0007AFF00F0E9FB2046FEF7ECFC0028EED08A
:1040C00000209EE72E2E5C4672656552544F535C6D
:1040D00071756575652E63004572726F723A25734E
:1040E0002C25640D0A00000004ED00E070B50546C3
:1040F0000E462C462CB940F21B121EA122A0FCF742
:10410000E5F8FFF7D3F9D4E90F12206801FB0200AC
:1041100060600020A0632068A060E06B401E226CFD
:10412000216800FB0210E060FF2084F8440084F85E
:1041300045009EB9206908B9012000E00020A8B917
:1041400004F1100000F046FB80B14FF0805012499E
:104150000860BFF34F8FBFF36F8F07E004F11000CB
:10416000FFF76EF904F12400FFF76AF9FFF7E2F9AF
:10417000012070BD2E2E5C4672656552544F535C13
:1041800071756575652E63004572726F723A25739D
:104190002C25640D0A00000004ED00E02DE9FF432A
:1041A00083B0064688461D464FF0000934462CB9B8
:1041B00040F2D92260A165A0FCF788F8B8F1000FA1
:1041C00001D1206C08B9012000E0002028B940F29C
:1041D000DA2259A15DA0FCF779F8022D02D1E06B3B
:1041E000012801D1012000E0002028B940F2DB22A3
:1041F00051A156A0FCF76AF800F0BAF908B9059881
:1042000008B9012000E0002028B940F2DE224AA1CE
:104210004EA0FCF75BF800BFFFF748F9A06BE16B1D
:10422000884201D3022D38D12A4641462046FEF766
:1042300070FA0746A06C68B129462046FEF746FC96
:1042400028B34FF0805045490860BFF34F8FBFF34C
:104250006F8F1CE0606A08B9012000E0002068B997
:1042600004F1240000F0B6FA88B14FF080503B49C9
:104270000860BFF34F8FBFF36F8F08E03FB14FF07F
:10428000805036490860BFF34F8FBFF36F8FFFF741
:1042900051F9012007B0BDE8F083059818B9FFF780
:1042A00049F90020F6E7B9F1000F04D101A8FFF7A2
:1042B0003DFC4FF00109FFF73DF9FFF733FDFFF734
:1042C000F5F894F94400401C10B9002084F844002B
:1042D00094F94500401C10B9002084F84500FFF710
:1042E00029F905A901A800F0C3F8F0B92046FEF7A6
:1042F000DEFBA0B104F110000599FFF711FB204689
:10430000FEF751FE00F0C0FA002885D14FF0805032
:1043100012490860BFF34F8FBFF36F8F7CE72046D1
:10432000FEF741FE00F0B0FA76E72046FEF73BFECE
:1043300000F0AAFA0020ADE72E2E5C4672656552A9
:10434000544F535C71756575652E63004572726FCD
:10435000723A25732C25640D0A00000004ED00E07C
:104360002DE9F05F80468A4615461E4644462CB924
:1043700040F29F3235A13AA0FBF7A8FFBAF1000F37
:1043800001D1206C08B9012000E0002028B94FF4C9
:1043900068722EA132A0FBF799FF022E02D1E06BCA
:1043A000012801D1012000E0002028B940F2A1320B
:1043B00026A12BA0FBF78AFFFFF760F900BF502171
:1043C000EFF3118081F31188BFF34F8FBFF36F8F2D
:1043D00000BF0746A06BE16B884201D3022E2BD1B0
:1043E00094F945B0324651462046FEF792F90BF15A
:1043F0000100C8B9A06C40B131462046FEF766FB0B
:10440000B8B1B5B10120286013E0606A08B9012095
:1044100000E0002068B904F1240000F0DBF940B1AD
:104420003DB10120286004E00BF1010040B284F8A6
:1044300045004FF0010901E04FF0000900BF87F38C
:10444000118800BF4846BDE8F09F00002E2E5C4654
:1044500072656552544F535C71756575652E6300C6
:104460004572726F723A25732C25640D0A000000A4
:104470002DE9F04104460D462CB940F6CB3219A186
:104480001DA0FBF723FF2DB940F6CC3215A11AA0D1
:10449000FBF71CFFFFF70AF81B4807682868401C59
:1044A00008B9002619E0194920680968884204D033
:1044B0006068B84201D801260FE06068381A2968A0
:1044C000884209D228686168791A401A2860204613
:1044D000FFF72CFB002600E00126FFF72BF8304603
:1044E000BDE8F0812E2E5C4672656552544F535CD8
:1044F0007461736B732E63004572726F723A257329
:104500002C25640D0A0000006400002078000020C3
:104510002DE9FF4F85B0804689461746DDE912AB8D
:10452000B800FEF789FD064656B15C20FEF784FD13
:1045300004460CB1266304E03046FFF733F800E090
:1045400000247CB10020CDE900ABCDE902403A4621
:1045500049464046089BFEF7A1F92046FEF704F8BD
:10456000012501E04FF0FF35284609B0BDE8F08F86
:104570000549096809B9012005E00449096809B934
:10458000022000E0002070476C000020880000201E
:104590000149086870470000640000202DE9F041DF
:1045A0004FF0000841480068002872D14048006878
:1045B000451C3F480560EDB93E480068006808B9F1
:1045C000012000E0002028B940F6D9123AA13FA00E
:1045D000FBF77CFE374807684048006835490860AB
:1045E0003E4807603E480068401C3D490860FEF7B1
:1045F000CDFB00BF3B48006885423CD300BF2D483F
:104600000068006808B9012000E0002020B14FF0E8
:10461000FF30344908602DE026480068C068C4684F
:104620006668B54202D22F48066023E0201DFEF7DF
:10463000F3FEA06A18B104F11800FEF7EDFE94F83D
:104640002C10012088402849096808432649086041
:10465000E16A01EB8101254A02EB8100211DFEF791
:1046600019FF2349E06A0968C96A8842C7D34FF035
:104670000108C4E700BF1E480068C06A00EB800064
:104680001A4951F82000012801D94FF0010805E02E
:10469000FFE718480068401C164908601648006883
:1046A00008B14FF001084046BDE8F08188000020C5
:1046B00064000020540000202E2E5C467265655276
:1046C000544F535C7461736B732E63004572726F49
:1046D000723A25732C25640D0A0000005800002052
:1046E0007800002080000020680000206801002081
:1046F00050000020700000207400002070B50546B6
:104700002C460026002D4BD026480068844201D15B
:10471000012000E0002028B940F6C76222A127A0AE
:10472000FBF7D4FD206D28B940F6C9621EA123A075
:10473000FBF7CCFD206D401E2065E16CE06A8842ED
:104740002ED0206D60BB201DFEF766FE78B9E06AB2
:1047500000EB80001D4951F8200040B994F82C105E
:10476000012088401A490968814319480160E06CBA
:10477000E062E06AC0F12000A06194F82C100120F2
:10478000884013490968084311490860E16A01EB50
:1047900081010E4A02EB8100211DFEF77BFE0126FE
:1047A000304670BD500000202E2E5C46726565526A
:1047B000544F535C7461736B732E63004572726F58
:1047C000723A25732C25640D0A0000006801002050
:1047D0006800002070B50646F068C4682CB940F641
:1047E00061321AA11EA0FBF771FD04F11800FEF75B
:1047F00013FE1F480068A8B9201DFEF70DFE94F8AF
:104800002C10012088401B49096808431949086099
:10481000E16A01EB8101184A02EB8100211DFEF7DC
:1048200039FE04E004F118011448FEF733FE144980
:10483000E06A0968C96A884204D901250120114942
:10484000086000E00025284670BD00002E2E5C4662
:1048500072656552544F535C7461736B732E6300C1
:104860004572726F723A25732C25640D0A000000A0
:10487000880000206800002068010020100400204B
:10488000500000207400002070B500240026344839
:10489000006828B94FF4FD6232A137A0FBF716FD7E
:1048A000FEF704FE2E480068401E2D4908600846A9
:1048B000006800284FD13448006800284BD024E01D
:1048C0003248C068C46804F11800FEF7A5FD201D39
:1048D000FEF7A2FD94F82C10012088402C490968AD
:1048E00008432B490860E16A01EB8101294A02EB88
:1048F0008100211DFEF7CEFD2749E06A0968C96ADB
:10490000884202D30120254908602048006808B980
:10491000012000E000200028D2D00CB1FEF736FACA
:104920001F48056865B100BFFFF738FE10B10120D0
:104930001A4908606D1E002DF6D100201849086044
:104940001648006838B10126300716490860BFF3E1
:104950004F8FBFF36F8FFEF7EDFD304670BD000047
:10496000880000202E2E5C4672656552544F535CC1
:104970007461736B732E63004572726F723A2573A4
:104980002C25640D0A0000006000002010040020A7
:104990006800002068010020500000207400002002
:1049A0007000002004ED00E01CB50024FDF738FE87
:1049B0000B48006858B10B481F2100234FF4827246
:1049C000CDE9001008A10A48FFF7A2FD04462CB962
:1049D00040F2331207A10DA0FBF778FC20461CBD66
:1049E0009400002098000020546D722053766300DC
:1049F0008D2F00082E2E5C4672656552544F535C15
:104A000074696D6572732E63000000004572726FE9
:104A1000723A25732C25640D0A0000002DE9FF472A
:104A200004460D4616461F46DDF830804FF000095B
:104A30002CB94FF4D37217A11CA0FBF747FC1F48F9
:104A4000006810B3009501960294062D15DAFFF761
:104A50008FFD022808D100234246694617480068A6
:104A6000FFF79CFB814610E000231A466946134875
:104A70000068FFF793FB814607E000233A4669464A
:104A80000E480068FFF76CFC8146484604B0BDE85C
:104A9000F08700002E2E5C4672656552544F535CC1
:104AA00074696D6572732E63000000004572726F49
:104AB000723A25732C25640D0A0000009400002032
:104AC00010B500290AD00878002807D00548784496
:104AD000FCF794F9002801D0002010BD024878446A
:104AE00010BD00002A050000220500000808A0F5FE
:104AF00000114FEA3101704743004FEAD30C4FEAEF
:104B00003C0C43401FBF40070CF1605113F0FE4FB7
:104B100070471CF0006F03D100200CF0004170477B
:104B20000CF0004343EA507010B540EACC0000F0AE
:104B300046F900BF000000924FEA0001FFF7D6BF20
:104B40004FF000414FF00000A1F500217047000038
:104B500090EA010F48BF81F0004100F18281421AC2
:104B60003CBF801A89184FEAD0524FF07F4C1CEAA4
:104B7000410FA2EBD15318BF9CEA026F00F03B80BB
:104B80004FF0004C4CEA00204CEA012121FA03FCD2
:104B900010EB0C0C1ED202F1FF325FEA1C2040EB3E
:104BA000C25038BF70471CF07F0F4FEA400C18BF4F
:104BB000BCF17F4F38BF7047C3F12003994008BF55
:104BC00020F00100BCF17F4F38BF7047A0F1C0401A
:104BD00000F03BB94FEA3C00000A40EBC25028BF4E
:104BE0001CF0FF0F4FEA400CE6D018BFBCF17F4F1E
:104BF00038BF7047EAE79CEA026F05D010EA5C0F05
:104C000008BF00F00040704710B500F0D8F800BFB2
:104C100064FBBE3E4FF47F0C1CEAD0121EBF1CEAA0
:104C2000D11392EA0C0F93EA0C0F00F0858090EA02
:104C3000010F48BF42F4807240F4000C41F40000C0
:104C40002CF07F4120F07F4000B58142A2EB0302AF
:104C50000FF2081CACEB504EC0F100009EF800E0D3
:104C60004FEA4E0E00FB0EFC38BF49004FEA2C1CE9
:104C700002F5FA020CFB0EF34FEACE1E4FEA112C9E
:104C80004FEAC1210EEB635E42EB22420EFB0CFCAD
:104C90004FEA1C5300FB03114FEA112C4FEA01317C
:104CA0000EFB0CFC4FEADC4C00FB0C11C14228BF90
:104CB00009184CEB03335DF804EB10EB410143EBB7
:104CC000C250B2F57C0F38BF704729D512F0F00FF3
:104CD0001CBF00F1C04000F000407047008182839B
:104CE0008485868788898B8C8D8E8F9192939596FB
:104CF00097999A9C9D9FA0A2A3A5A7A8AAACAEB085
:104D0000B2B3B5B7B9BCBEC0C2C5C7C9CCCED1D489
:104D1000D7D9DCDFE2E6E9ECF0F3F7FAFE000000B9
:104D20004FEA400C0CF1807CBCF17E4F28BF7047ED
:104D3000B0F1C04000F089B890EA010F0CEAD1133D
:104D400048BF42F48072624538BF634507D213F40E
:104D50007F0F16D080EA010000F00040704710B5C8
:104D600000F02DF8097EFC3E00F005B880EA010055
:104D700000F00040704780EA010000F0004000F0C1
:104D800064B812F47F0F04BF0248704780EA010044
:104D900000F05BB80000C07FB0FA80F310FA03F2B5
:104DA000C3F19D030AD0D90501EB1220530638BF89
:104DB000704700F1010008BF20F0010070470EF1BC
:104DC000020E2EF0030E5EF8044B244204D44FEA88
:104DD0004102B2F17F4F11D84FEA4003B3F17F4F48
:104DE0000CD80ED14FEAD07CB2F17F4F0CEB4C0CBB
:104DF0000CF1020C08BF4CEBD17C04E04FF0080C26
:104E000001E04FEAD17C0CEB4C0324FA03F404F0EC
:104E10000704B4F1040C06D20EEB840CBDE810407C
:104E20004CF0010C6047DFE80CF0070802024FF07D
:104E30000040A0F5800010BD0846420018BFD2F126
:104E4000807288BF00F0004010BDFF2141EAD050C1
:104E5000C005704790EA010F48BF81F000413FF55F
:104E60007EAE421A04D882F00042A0EB0200114448
:104E70004FEAD0524FF07F4C1CEA410FA2EBD153C6
:104E800018BF9CEA026F4AD04FF0004C4CEA002059
:104E90004CEA012121FA03FCB0EB0C0C0FD412F008
:104EA000FE0F36D05FEA4C001DD5001240EBC25019
:104EB00038BF70471CF03F0F18BF70470BE0A2F1DE
:104EC00001025FEA1C2040EBC25038BF70471CF063
:104ED0007F0F18BF7047C3F12003994014BF401ED5
:104EE00020F00100704780084FEA122308BF704786
:104EF000B0FA80FCA2EB0C02CCF1280C60FA0CF0AA
:104F000093EA122F04BF00EBC25070474FEAC37000
:104F10007047130A5FEADC1008BF7047F6E79CEAA7
:104F2000026F04D010EA5C0F08BF0020704710B574
:104F3000FFF745FF40DFF63E81F000407047FBF78A
:104F40003FBC000002400000000000A00000000084
:104F500005400000000000C8000000000C400000F8
:104F60000000409C00000000194000000020BCBE72
:104F70000000000034400000BFC91B8E0000000488
:104F8000B5400000504BCFD06607E2CF01000000D3
:104F90006C4100003E8251AADFEEA7340100000000
:104FA000D9420000DCB5A0E23A301F97FFFFFFFFB7
:104FB000B4450000FD25A0C8E9A3C14FFFFFFFFFD6
:104FC000FF3F00000000008000000000FF3F0000E5
:104FD00000000080000000001450000800000020C5
:104FE000C40000006C010008D8500008C400002074
:104FF000145A0000880100081C0000004300000053
:10500000F8FFFFFF0C0000000E0000000F00000082
:105010002E00000000000000000000000000000062
:1050200000000000000000000000000000A24A0490
:105030000000000000000000010203040607080948
:10504000010000000000000000000000000000005F
:10505000000000000102030401020304060708091E
:10506000020406080000000000000000000000002C
:105070000000000000000000000000000000000030
:105080000000000000000000000000000000000020
:105090000000000000000000000000000000000010
:1050A0000000000000000000000000000000000000
:1050B00000000000AAAAAAAA000000000000000048
:1050C00000000000000000000000000000000000E0
:0850D0000000000000000000D8
:040000050800028964
:00000001FF
